{
    "_format": "hh-sol-artifact-1",
    "contractName": "Transactions",
    "sourceName": "contracts/Transactions.sol",
    "abi": [
        {
            "inputs": [
                {
                    "internalType": "address payable",
                    "name": "receiver",
                    "type": "address"
                },
                {
                    "internalType": "uint256",
                    "name": "amount",
                    "type": "uint256"
                }
            ],
            "name": "addToBlockChain",
            "outputs": [],
            "stateMutability": "nonpayable",
            "type": "function"
        }
    ],
    "bytecode": "0x608060405234801561001057600080fd5b5061026b806100206000396000f3fe608060405234801561001057600080fd5b506004361061002b5760003560e01c80634434bd1114610030575b600080fd5b61004a600480360381019061004591906101f5565b61004c565b005b600060405180606001604052803373ffffffffffffffffffffffffffffffffffffffff1681526020018473ffffffffffffffffffffffffffffffffffffffff16815260200183815250908060018154018082558091505060019003906000526020600020906003020160009091909190915060008201518160000160006101000a81548173ffffffffffffffffffffffffffffffffffffffff021916908373ffffffffffffffffffffffffffffffffffffffff16021790555060208201518160010160006101000a81548173ffffffffffffffffffffffffffffffffffffffff021916908373ffffffffffffffffffffffffffffffffffffffff1602179055506040820151816002015550505050565b600080fd5b600073ffffffffffffffffffffffffffffffffffffffff82169050919050565b600061018c82610161565b9050919050565b61019c81610181565b81146101a757600080fd5b50565b6000813590506101b981610193565b92915050565b6000819050919050565b6101d2816101bf565b81146101dd57600080fd5b50565b6000813590506101ef816101c9565b92915050565b6000806040838503121561020c5761020b61015c565b5b600061021a858286016101aa565b925050602061022b858286016101e0565b915050925092905056fea2646970667358221220d3dec490d6df30d91d544624c815a3665179f39388b920146c40f40fa6ada03a64736f6c63430008090033",
    "linkReferences": {},
    "deployedLinkReferences": {}
}